S01300004D617374657220636F64652E73726563EA
S11300000C9434000C9451000C9451000C94510045
S11300100C9451000C9451000C9451000C94510018
S11300200C9451000C9451000C949B080C945100B6
S11300300C9451000C9451000C9451000C945100F8
S11300400C9451000C9451000C9451000C945100E8
S11300500C945100D4062807A807AE07B407BA07C2
S1130060C4076A07CA07CF0611241FBECFE5D8E02C
S1130070DEBFCDBF12E0A0E6B0E0E4EEF3E102C0E3
S113008005900D92A637B107D9F722E0A6E7B2E0B2
S113009001C01D92A937B207E1F70E94C2030C9474
S11300A0F0090C940000823419F118F4813439F009
S11300B008958334B1F1843409F44CC00895413077
S11300C059F42AB381E090E002C0880F991F6A9521
S11300D0E2F7822B8ABB08952AB381E090E002C044
S11300E0880F991F6A95E2F7809582238ABB089549
S11300F0413059F427B381E090E002C0880F991F82
S11301006A95E2F7822B87BB089527B381E090E0DC
S113011002C0880F991F6A95E2F78095822387BBF6
S11301200895413059F424B381E090E002C0880F6F
S1130130991F6A95E2F7822B84BB089524B381E06A
S113014090E002C0880F991F6A95E2F78095822398
S113015084BB0895413059F421B381E090E002C09A
S1130160880F991F6A95E2F7822B81BB089521B30A
S113017081E090E002C0880F991F6A95E2F78095AC
S1130180822381BB0895823419F118F4813439F043
S113019008958334B1F1843409F44CC00895413096
S11301A059F42BB381E090E002C0880F991F6A953F
S11301B0E2F7822B8BBB08952BB381E090E002C061
S11301C0880F991F6A95E2F7809582238BBB089567
S11301D0413059F428B381E090E002C0880F991FA0
S11301E06A95E2F7822B88BB089528B381E090E0FA
S11301F002C0880F991F6A95E2F78095822388BB15
S11302000895413059F425B381E090E002C0880F8D
S1130210991F6A95E2F7822B85BB089525B381E087
S113022090E002C0880F991F6A95E2F780958223B7
S113023085BB0895413059F422B381E090E002C0B7
S1130240880F991F6A95E2F7822B82BB089522B327
S113025081E090E002C0880F991F6A95E2F78095CB
S1130260822382BB08958234D9F018F4813431F0AA
S11302704DC0833439F18434B9F148C029B381E0E5
S113028090E0062E02C0880F991F0A94E2F730E02E
S11302908223932302C0959587956A95E2F7089582
S11302A026B381E090E0062E02C0880F991F0A94BD
S11302B0E2F730E08223932302C0959587956A95EF
S11302C0E2F7089523B381E090E0062E02C0880F80
S11302D0991F0A94E2F730E08223932302C0959594
S11302E087956A95E2F7089520B381E090E0062EA1
S11302F002C0880F991F0A94E2F730E08223932307
S113030002C0959587956A95E2F7089580E008956F
S1130310823459F018F4813431F00895833439F07B
S1130320843439F008956BBB089568BB089565BBA8
S1130330089562BB0895823461F118F4813441F068
S11303400895833409F446C0843409F464C00895DC
S1130350413099F480B78B7F80BF2AB381E090E06D
S113036002C0880F991F6A95E2F7982F90959223FF
S11303709ABB9BB3892B8BBB08952BB381E090E090
S113038002C0880F991F6A95E2F7809582238BBB80
S11303900895413099F480B78B7F80BF27B381E003
S11303A090E002C0880F991F6A95E2F7982F909504
S11303B0922397BB98B3892B88BB089528B381E017
S11303C090E002C0880F991F6A95E2F78095822316
S11303D088BB0895413099F480B78B7F80BF24B3E4
S11303E081E090E002C0880F991F6A95E2F7982F88
S11303F09095922394BB95B3892B85BB089525B31F
S113040081E090E002C0880F991F6A95E2F7809519
S1130410822385BB0895413099F480B78B7F80BFD8
S113042021B381E090E002C0880F991F6A95E2F73A
S1130430982F9095922391BB92B3892B82BB0895F8
S113044022B381E090E002C0880F991F6A95E2F719
S11304508095822382BB0895E199FECF9FBB8EBB1A
S1130460E09A8DB30895E199FECF4115510591F0BD
S1130470460F571FFB019C01261B370BB9019B013B
S11304802E0F3F1F3FBB2EBBE09A9DB39193E41701
S1130490F507A9F70895E199FECF9FBB8EBBE09ABB
S11304A08DB3861719F06DBBE29AE19A0895411550
S11304B05105C9F0460F571FFB019C01261B370B42
S11304C0B901E199FECF9B012E0F3F1F3FBB2EBB0D
S11304D0E09A2DB39191291719F09DBBE29AE19A04
S11304E0E417F50771F7089541E060E084E40E94A1
S11304F0530041E061E084E40E94530041E062E083
S113050084E40E94530041E063E084E40E945300C9
S113051040E064E084E40E94530040E065E084E449
S11305200E94530040E066E084E40E94530040E0EF
S113053067E084E40E94530041E064E084E40E94A4
S11305409B0141E065E084E40E949B0141E066E098
S113055084E40E949B0141E067E084E40E949B01E3
S11305600895EF92FF920F931F93CF93DF93CDB72C
S1130570DEB760970FB6F894DEBF0FBECDBF80E143
S1130580E0E6F0E0DE01119601900D928A95E1F724
S1130590E12CF12C0FEF41E060E084E40E94C30001
S11305A041E061E084E40E94C30041E062E084E44D
S11305B00E94C30041E063E084E40E94C3008FE131
S11305C09EE40197F1F700C0000040E06E2D84E442
S11305D00E94C30010E064E0610F84E40E943301D0
S11305E081110FC0F701EE0FFF1FEE0FFF1F81E017
S11305F090E08C0F9D1FE80FF91FE10FF11D0081A2
S113060003C01F5F143039F79FEFE91AF90A84E039
S1130610E816F10409F0BFCF802F60960FB6F89466
S1130620DEBF0FBECDBFDF91CF911F910F91FF9021
S1130630EF90089541E060E082E40E94C3008FECF3
S113064097E00197F1F700C0000040E060E082E429
S11306500E94C3008FEC97E00197F1F700C00000FF
S11306600895682F81E40E94880140E061E082E4FB
S11306700E94C3000E941A03089541E060E081E4EF
S11306800E94530041E061E081E40E94530041E094
S113069062E081E40E94530041E063E081E40E944F
S11306A0530041E064E081E40E94530041E065E0CE
S11306B081E40E94530041E066E081E40E9453001B
S11306C041E067E081E40E94530041E060E082E49D
S11306D00E94530041E062E082E40E94530041E042
S11306E061E082E40E94530040E062E082E40E9400
S11306F0C30088E30E94310381E00E9431038EE04D
S11307000E9431038FE097E20197F1F700C00000E7
S11307100895682F81E40E94880141E061E082E449
S11307200E94C3000E941A030895CF93DF93EC0143
S11307308881882331F021960E948903899181114F
S1130740FBCFDF91CF91089581E00E94310308959A
S1130750813019F48FE7860F06C0823019F48FEBCD
S1130760860F01C080E80E943103089541E00E9491
S11307705300089541E00E94C300089540E00E94A0
S1130780C3000895CF93DF93CDB7DEB728970FB694
S1130790F894DEBF0FBECDBF60E083E40E94B603D1
S11307A061E083E40E94B60362E083E40E94B6033E
S11307B00E943D030E9474020E94BC0980E790E0FD
S11307C00E94950361E082E00E94A80381E890E022
S11307D00E9495032FEF34E38CE021503040804099
S11307E0E1F700C000000E94A40380E091E00E94B1
S11307F02C02813039F481E091E00E942C02813096
S113080009F4C4C08DE890E00E94950361E082E0A1
S11308100E94A80387E990E00E9495039FEFE4E318
S1130820FCE09150E040F040E1F700C000000E947D
S1130830A40382EA90E00E94950361E082E00E94B2
S1130840A80381EB90E00E9495038FEF89838A834C
S11308508B838C839E012F5F3F4F790169011CE0DC
S11308600E94B1028F3FE1F3F60181936F010E9470
S113087089038FE19EE40197F1F700C00000612F26
S113088082E00E94A8038AE20E9489039FE7E8E3CA
S1130890F1E09150E040F040E1F700C000001F5F3C
S11308A01031F1F644E050E0BE016F5F7F4F82E00B
S11308B091E00E94570261E080E091E00E944B02C7
S11308C00E94A4038DEB90E00E9495032FE73AE188
S11308D086E0215030408040E1F700C000000E94D3
S11308E0A40388EC90E00E94950361E082E00E94FA
S11308F0A80387ED90E00E9495031CE00E94B102DA
S11309008F3FE1F3F70181937F010E9489038FE117
S11309109EE40197F1F700C00000612F82E00E947D
S1130920A8038AE20E9489039FE7E8E3F1E091507B
S1130930E040F040E1F700C000001F5F1031F1F625
S113094044E050E0BE016F5F7F4F86E091E00E947B
S1130950570261E081E091E00E944B020E94A403EF
S11309608DEB90E00E9495032FE73AE186E0215059
S113097030408040E1F700C000000E94A40360E022
S11309808AE091E00E944B02C12C05C08AE091E00C
S11309900E942C02C82EF12C33243A940F2EF2E339
S11309A09F2EF02DD32C0F2EFAE0AF2EF02D0F2E0C
S11309B0F9E0BF2EF02D80917602813001F50E947E
S11309C0E00910927802109277021092760261E0A8
S11309D083E40E94BE0360E083E40E94BE030E949D
S11309E0A40383EE90E00E9495039FEFE4E3FCE010
S11309F09150E040F040E1F700C0000002C0F11067
S1130A00ACC100E0132D21E0C21226C00E94A40351
S1130A1083EF90E00E94950361E082E00E94A803C6
S1130A2081E091E00E94950362E083E40E94BA03AE
S1130A303FEF83E294EF315080409040E1F700C0F3
S1130A40000062E083E40E94BE0360E08AE091E07B
S1130A500E944B0200E0C12C0E94A40381E191E0BA
S1130A600E94950361E082E00E94A8038FE191E077
S1130A700E9495031F3F29F40E94B102182F8F3F53
S1130A80D9F380ED810F823088F00E94A4038FE2B5
S1130A9091E00E949503EFEFF4E32CE0E150F04085
S1130AA02040E1F700C000001D2DADCFDD82DE82C5
S1130AB0DF82D886D982DA82DB82DC82103321F0AD
S1130AC0113309F4A3C045C1892C801A0E94A403E0
S1130AD08CE391E00E94950361E082E00E94A80308
S1130AE087E491E00E9495033FEF80E792E0315064
S1130AF080409040E1F700C000007E01E5E0EE0E8A
S1130B00F11C1CE00E94B1028F3FE1F3F7018193D5
S1130B107F010E9489038FE19EE40197F1F700C0F1
S1130B200000612F82E00E94A8038AE20E948903E8
S1130B309FE7E8E3F1E09150E040F040E1F700C0C6
S1130B4000001F5F1031F1F644E050E0BE016F5F1A
S1130B507F4F82E091E00E94330244E0BE016F5F68
S1130B607F4FCE0105960E94B208813021F50E9484
S1130B70A40383E591E00E94950361E082E00E9472
S1130B80A8038CE391E00E9495032FE73AE186E005
S1130B90215030408040E1F700C0000060E083E471
S1130BA00E94BA030E94CA090E94A40300E01D2DFA
S1130BB0FF24F394CFC00F5F0E94A4038EE591E05D
S1130BC00E94950361E082E00E94A80389E691E017
S1130BD00E949503882D0E9489039FEFE4E3FCE0C3
S1130BE09150E040F040E1F700C000000E94A403EF
S1130BF08A94033008F46ACF61E08AE091E00E94AD
S1130C004B021D2DCC24C394F12CA4C0892C801A32
S1130C100E94A40385E791E00E94950361E082E0CD
S1130C200E94A80380E891E00E9495032FEF30E72B
S1130C3082E0215030408040E1F700C000007E0196
S1130C4095E0E90EF11C1CE00E94B1028F3FE1F334
S1130C50F70181937F010E9489038FE19EE401974C
S1130C60F1F700C00000612F82E00E94A8038AE22D
S1130C700E9489039FE7E8E3F1E09150E040F040EF
S1130C80E1F700C000001F5F1031F1F644E050E0CE
S1130C90BE016F5F7F4F86E091E00E94330244E023
S1130CA0BE016F5F7F4FCE0105960E94B20881306E
S1130CB029F50E94A40383E591E00E94950361E075
S1130CC082E00E94A80385E791E00E9495032FE744
S1130CD03AE186E0215030408040E1F700C0000056
S1130CE061E083E40E94BA030E94CA090E94A4033B
S1130CF000E01D2D6894FF24F1F82CC00F5F0E94C2
S1130D00A4038CE891E00E94950361E082E00E94D4
S1130D10A80389E691E00E949503882D0E94890327
S1130D209FEFE4E3FCE09150E040F040E1F700C0C5
S1130D3000000E94A4038A94033008F469CF61E0A0
S1130D408AE091E00E944B021D2DCC24C394F12C27
S1130D5001C0F12CFF2009F456CE01E00F2EF7E07C
S1130D605F2EF02D6894882483F80F2EF6E0EF2E82
S1130D70F02D0F2EF3E07F2EF02D6894662462F898
S1130D800F2EF5E04F2EF02DA6C1FA013197EA306F
S1130D90F10508F0A4C1E65DFF4F0C94EA0988232D
S1130DA009F4FEC0082D97C10E94A40387E991E0CD
S1130DB00E94950361E082E00E94A80321E0F21200
S1130DC005C087EA91E00E94950307C032E0F31260
S1130DD004C087EB91E00E9495038F2D0E94D408F4
S1130DE0182F8FE798E3E1E081509040E040E1F76D
S1130DF000C00000113309F476C1123309F475C13F
S1130E00133309F474C1143341F4F2E0FF1609F406
S1130E1070C121E0F2127FC16EC11F3F99F00E94A0
S1130E20A40387EC91E00E9495033FE78AE196E0F2
S1130E30315080409040E1F700C00000115314305D
S1130E4008F449C180917602882309F4ADCF43C1E7
S1130E500E94A40383ED91E00E94950361E082E087
S1130E600E94A80386EE91E00E9495038F2D0E94B4
S1130E70D408182FEFE7F8E321E0E150F0402040D8
S1130E80E1F700C00000813309F437C1823309F46B
S1130E9036C1833309F435C1843309F434C18F3F37
S1130EA099F00E94A40387EC91E00E9495033FE728
S1130EB08AE196E0315080409040E1F700C00000A4
S1130EC01153143008F407C180917602882309F481
S1130ED0BFCF01C10E94A40387EF91E00E94950354
S1130EE061E082E00E94A8038AE092E00E949503F8
S1130EF08F2D0E94D408182FEFE7F8E321E0E1508A
S1130F00F0402040E1F700C00000813309F4FDC047
S1130F10823309F4FCC0803309F4FBC08F3F99F09D
S1130F200E94A40387EC91E00E9495033FE78AE1C5
S1130F3096E0315080409040E1F700C0000010532B
S1130F40133008F4C8C080917602882319F2C3C014
S1130F506F2D872D0E94F30801E0BDC06F2D862DF3
S1130F600E94F30801E0B7C06F2D842D0E94F3089E
S1130F7001E0B1C06F2D8E2D0E94F308E2E0FE1651
S1130F8009F4A2C002E0A7C06F2D852D0E94F308CA
S1130F9002E0A1C06F2D8B2D0E94F308082D9BC089
S1130FA00E94A4038BE192E00E9495038FED0E94BE
S1130FB0890383E40E9489036BE081E00E94A80313
S1130FC0FFEF20E732E0F15020403040E1F700C06D
S1130FD000008F2D0E94D4089FE3EDE0F3E09150D0
S1130FE0E040F040E1F700C00000909176029130BB
S1130FF009F46CC010ED180F1A3080F00E94A4039D
S113100087EC91E00E9495032FE73AE186E02150B6
S113101030408040E1F700C000004FC00E948903C7
S11310208F2D0E94D4089FE3EDE0F3E09150E0405F
S1131030F040E1F700C0000090917602913009F48D
S113104047C000ED080F0A3080F00E94A40387EC2B
S113105091E00E9495032FE73AE186E02150304069
S11310608040E1F700C0000028C00E948903110FEE
S1131070812F880F880F180F010F80E40E94C30985
S11310809FEFE0E7F2E09150E040F040E1F700C06C
S11310900000802F0E94C3090E94A40389E292E009
S11310A00E9495032FE73AE186E0215030408040CA
S11310B0E1F700C0000001110DC080917602882381
S11310C009F46ECF082D07C001E005C0082D03C048
S11310D0082D01C0082D80917602402F50E0813008
S11310E009F053CE68CC072DF6CF062DF4CF042D8E
S11310F0F2CF0E2DF0CF02E0EECF0E2DECCF052D6A
S1131100EACF082DE8CF01E0E6CF0A2DE4CF0B2D7E
S1131110E2CF02E0E0CF0E94A40387EC91E00E94BA
S113112095039FE7EAE1F6E09150E040F040E1F7F3
S113113000C00000D0CF1F920F920FB60F9211245F
S11311408F939F9380917702909178020196909368
S11311507802809377029F918F910F900FBE0F902A
S11311601F9018954423D1F0FC013081FB012081AC
S1131170321316C0FC013196DB011196415050E048
S11311804F5F5F4F480F591F04C021919D91291350
S113119009C0E417F507C9F781E0089581E00895CF
S11311A080E0089580E00895CF93C82F809177025E
S11311B090917802883B9B4010F0C13049F08091B7
S11311C0770290917802803D974038F0C23029F43C
S11311D081E0809376028FEF04C00E94B1028F3FBA
S11311E029F3CF9108958F929F92AF92BF92CF929D
S11311F0DF92EF92FF920F931F93CF93DF93D82F39
S1131200E62E00E0F12C10E00F2EF3E18F2EF02DEE
S11312100F2EF5E19F2EF02D0F2EF4E1AF2EF02DC1
S11312200F2EF6E1BF2EF02D0F2EF1E1CF2EF02D73
S11312300F2EF2E1DF2EF02D0E94A403D53011F120
S113124028F4D33049F0D43091F047C0D73081F13D
S113125020F1D930C1F141C08AE392E00E949503A4
S113126001E30F2EF1E2FF2EF02D1C2D36C081E498
S113127092E00E94950302E30F2EF2E2FF2EF02D7E
S11312801D2D2BC088E492E00E94950303E30F2EEA
S1131290F3E2FF2EF02D182D20C08FE492E00E947F
S11312A0950304E30F2EF4E2FF2EF02D1A2D15C042
S11312B086E592E00E94950305E30F2EF5E2FF2EEA
S11312C0F02D192D0AC08AE592E00E94950306E3E9
S11312D00F2EF6E2FF2EF02D1B2D812F0E94C30945
S11312E08FE19EE40197F1F700C000008FEF0E94A8
S11312F0C30961E082E00E94A80384E692E00E94B0
S113130095038E2D0E94D408C82F8FE19EE4019787
S1131310F1F700C00000C13321F48F2D0E94C309EE
S11313201EC0C23321F4802F0E94C30918C0CF3FCE
S113133089F0C033A1F00E94A40387EC91E00E94DD
S113134095038FE19EE40197F1F700C00000C053BC
S1131350C33028F080917602882309F46DCFDF91A1
S1131360CF911F910F91FF90EF90DF90CF90BF909E
S1131370AF909F908F90089587B3806B87BB8DB19A
S113138081658DB90895C4988FB9779BFECFC49AAF
S11313908FB108958EE48CBF83B7886083BF83B711
S11313A08F7B83BF83B7816083BF83B78D7F83BF08
S11313B083B7846083BF789489B7826089BF0895B6
S11313C083B78E7F83BF83B78D7F83BF83B78B7FC4
S11313D083BF0895EE0FFF1F0590F491E02D09944B
S10713E0F894FFCFAB
S11313E43738392F3435362A3132332D41303D2BB9
S11313F457656C636F6D6520746F20736D617274CF
S113140400686F6D652073797374656D004C6F6744
S1131414696E20666F720066697273742074696DF4
S113142465005365742041646D696E207061737343
S11314340041646D696E20706173733A0050617386
S1131444732053617665640053657420477565732E
S1131454742050617373004775657374205061730D
S1131464733A0053657373696F6E2054696D656FC5
S11314747574004C6F67696E20626C6F636B65648E
S11314840077616974203230207365636F6E64730E
S11314940053656C656374206D6F6465203A003095
S11314A43A41646D696E20313A4775657374005727
S11314B4726F6E6720696E7075742E0041646D6975
S11314C46E206D6F646500456E746572205061739F
S11314D4733A0052696768742070617373005772B9
S11314E46F6E672050617373005472696573206C66
S11314F46566743A004775657374206D6F6465009E
S1131504456E74657220706173733A0057726F6E1E
S113151467207061737300313A526F6F6D312032FA
S11315243A526F6F6D3200333A526F6F6D33203419
S11315343A4D6F72652000333A526F6F6D33203425
S11315443A526F6F6D340057726F6E6720696E7014
S1131554757400313A526F6F6D3420202020323A72
S1131564545620202000333A41697220436F6E643C
S11315742E343A52455400313A5365742074656DDF
S113158470657261747572652000323A436F6E74CB
S1131594726F6C2020303A524554005365742074A1
S11315A4656D702E3A5F5F200054656D70657261DD
S11315B4747572652053656E7400526F6F6D313AA1
S11315C400526F6F6D323A00526F6F6D333A0052AE
S11315D46F6F6D343A0054563A0041697220436F78
S11315E46E643A00312D4F6E20322D4F66662030E2
S10915F42D5245540000D5
S9030000FC
